:020000040000FA
:10000000A0040020650100008501000087010000B8
:1000100000000000000000000000000000000000E0
:100020000000000000000000000000008901000046
:1000300000000000000000008B0100008D010000A6
:10004000910300008F01000091110000B511000024
:10005000D91100001D1200008F0100008F01000067
:100060008F0100008F0100008F0100008F01000050
:10007000E9130000251400008F0100008F0100002B
:100080008F0100008F0100008F0100008F01000030
:100090008F0100008F0100008F0100008F01000020
:1000A0008F0100008F0100008F0100008F01000010
:1000B000BD1300008F0100008F0100008F010000C0
:1000C00000F002F800F03EF80CA030C80838241800
:1000D0002D18A246671EAB4654465D46AC4201D180
:1000E00000F030F87E460F3E0FCCB6460126334274
:1000F00000D0FB1AA246AB4633431847AC140000AD
:10010000CC140000103A02D378C878C1FAD852074C
:1001100001D330C830C101D504680C6070470000BD
:100120000023002400250026103A01D378C1FBD813
:10013000520700D330C100D50B6070471FB51FBDFB
:1001400010B510BD00F0F0F81146FFF7F7FF01F011
:10015000EFF900F008F903B4FFF7F2FF03BC00F079
:100160000FF900000D480E4901600E4901600E496B
:1001700001600E4A0E491160002101600D48804760
:100180000D480047FEE7FEE7FEE7FEE7FEE7FEE775
:100190000A480B49094A0B4B704700000001005008
:1001A00059000000160000008800000024000050E4
:1001B000A55A0000E5130000C1000000A0000020C7
:1001C000A0040020A0000020002203098B422CD3B1
:1001D000030A8B4211D300239C464EE003460B4397
:1001E0003CD4002243088B4231D303098B421CD3F9
:1001F000030A8B4201D394463FE0C3098B4201D3EB
:10020000CB01C01A524183098B4201D38B01C01A22
:10021000524143098B4201D34B01C01A5241030999
:100220008B4201D30B01C01A5241C3088B4201D348
:10023000CB00C01A524183088B4201D38B00C01AF5
:10024000524143088B4201D34B00C01A5241411A1C
:1002500000D201465241104670475DE0CA0F00D0FF
:100260004942031000D34042534000229C460309F8
:100270008B422DD3030A8B4212D3FC22890112BA7E
:10028000030A8B420CD3890192118B4208D3890156
:1002900092118B4204D389013AD0921100E089096E
:1002A000C3098B4201D3CB01C01A524183098B424F
:1002B00001D38B01C01A524143098B4201D34B0138
:1002C000C01A524103098B4201D30B01C01A52419B
:1002D000C3088B4201D3CB00C01A524183088B4222
:1002E00001D38B00C01A5241D9D243088B4201D3AB
:1002F0004B00C01A5241411A00D201466346524196
:100300005B10104601D34042002B00D54942704794
:1003100063465B1000D3404201B50020C046C04692
:1003200002BD704770477047754600F025F8AE462D
:10033000050069465346C008C000854618B020B580
:10034000FFF726FF60BC00274908B6460026C0C557
:10035000C0C5C0C5C0C5C0C5C0C5C0C5C0C5403D7D
:1003600049008D46704710B50446C046C046204639
:10037000FFF7F1FE10BD000000487047400000206C
:1003800001491820ABBEFEE72600020070470000BE
:1003900010B5052000078069102188431030052121
:1003A0000907886103480068002802D001480068F6
:1003B000804710BD2C000020F7B582B017463148A9
:1003C0003C1803990298FFF7FFFE0007000F03286F
:1003D0000FD2606A0121490788436062606A491050
:1003E0008843606203990298FFF7EEFE0009861EBB
:1003F00040E0606A01214907884340186062606AF2
:10040000491088434018606203990298FFF7DCFEA8
:10041000861E1D4886422DDD606A012149078843FA
:1004200040186062606A49108843606208251EE0D7
:1004300003990298FFF7C8FE691C0190FFF7C4FEFC
:10044000032913D2606A0F210906884329060F2267
:10045000120611400843606203990298FFF7B4FE48
:10046000691C0190FFF7B0FE861E02E06D1C102D86
:10047000DEDB00BF606A000C0004B1B208436062BA
:1004800005B0F0BD00000540FFFF000010B50346B9
:10049000002901DB102901DD054810BD9801054C3C
:1004A0000219906801248C40A04390600020F4E77A
:1004B0000189FFFF0040005008B502469001094B3A
:1004C000C01800900098006801238B401843009BDF
:1004D000186005480068202398432030024B1860BC
:1004E000002008BD1440005080410050F8B504467B
:1004F0000D4616461F46022E03D1012F01D1354865
:10050000F8BD012C05D10E2D01D00F2D01D13148A0
:10051000F6E7A001304940180090002E09D100985C
:1005200000682946103101228A4010430099086072
:100530001AE0012E07D1009800680121A940084364
:100540000099086010E0022E0CD10098006801218B
:10055000A94008432946103101228A4010430099DE
:10056000086001E01B48CBE7A0011B49091F4018A8
:100570000090002F07D1009800680121A94088430E
:10058000009908600BE0012F07D100980068012155
:10059000A94008430099086001E00E48B0E7002C2C
:1005A00001D0012C06D10221042000F0CBFE042052
:1005B00000F0BEFE022C03D0032C01D0042C06D187
:1005C0000221052000F0BEFE052000F0B1FE002053
:1005D00096E700000189FFFF1C40005010B501465E
:1005E0000B0000F02FFF3E202A414B5C747D7E946F
:1005F000A4B4F1EFEEEDECEBEAE9E8E7E6E5E4E3DD
:10060000E2E1E0DFDEDDDCDBDAD9D8D7D6D5D4D342
:10061000D2D1D0CFCECDCCCBCAC9C8C7C6C5C4C332
:10062000C2C1C0BFBEBD002005231B0718635863AD
:100630009863D863FA4B186071E305200007406B9C
:1006400001231B03184305231B075863F448006963
:1006500001239B021843F24B1861184600695B01A5
:100660009843EF4B18615AE305200007006B032302
:100670001B02184305231B07186350E305200007DE
:10068000006B03239B02184305231B071863E448F0
:1006900000690123DB029843E14B18613FE3052029
:1006A0000007806B0F23184305231B079863184628
:1006B000006B0123DB03184305231B071863D8488D
:1006C00000691F235B011843D54B186127E3052000
:1006D0000007C06BC023184305231B07D8631EE324
:1006E00000BF062901D1062200E00E2205200007E6
:1006F000806B03239340184305231B079863C84866
:1007000000690123DB029843C54B186107E305200C
:100710000007806B0F23184305231B079863C0480D
:100720000069FF23E1339843BD4B1861F7E20520D0
:100730000007406B01239B02184305231B075863E6
:10074000B748006901231843B54B1861E7E205205B
:100750000007806B3023184305231B079863DEE2F4
:10076000DBE264E282E248E246E213E211E2D9E12E
:10077000D7E1B7E1B5E141E20DE2D4E1B3E1A6E1B1
:1007800065E163E161E15FE15DE15BE14AE137E1A0
:1007900029E117E106E1F5E0E4E0D9E0CCE0C4E0CE
:1007A000A3E0AEE0ACE0AAE0A8E0A6E0A4E0B0E000
:1007B00092E088E07EE073E062E057E04DE037E0F1
:1007C0002DE022E011E0FFE705200007806B0F23FA
:1007D0001B02184305231B079863914800690123F6
:1007E000DB0298438E4B186199E205200007406BAD
:1007F00001235B02184305231B07586388480069DF
:1008000002231843864B186189E205200007806B9C
:1008100003231B03184305231B0798637FE205206E
:100820000007C06B0F23184305231B07D86376E22C
:1008300005200007006B8023184305231B0718635E
:100840007748006904231843754B186118460069FE
:100850005B019843724B186161E205200007C06B91
:100860003023184305231B07D86358E205200007EF
:10087000C06B0F231B02184305231B07D8634EE2EE
:1008800005200007406B01239B03184305231B072A
:1008900058636348006908231843614B18613EE2BE
:1008A00005200007C06B03231B03184305231B0708
:1008B000D86334E205200007806B0F23184305231B
:1008C0001B0798632BE205200007C06B0223184327
:1008D00005231B07D86322E205200007C06B042311
:1008E000184305231B07D86319E24D480069042308
:1008F00098434B4B186100BF00BF00BF00BF00BF53
:1009000000BF474800690123DB029843444B18614C
:1009100000BF05200007006B0B46173B01249C40DD
:10092000204305231B071863F9E13D4800690823AC
:1009300098433B4B186100BF05200007436B0846F6
:100940001138012484402343052000074363E6E176
:1009500005200007406BFF230133184305231B07C5
:100960005863DCE105200007406B01235B0218435C
:1009700005231B0758632A48006902239843284B24
:100980001861CCE105200007406B01239B0218434E
:1009900005231B0758632248006940084000204B8C
:1009A0001861BCE105200007406B0123DB021843FE
:1009B00005231B0758631A48006910239843184BF6
:1009C0001861ACE105200007406B0123DB031843ED
:1009D00005231B0758631248006901231B061843AF
:1009E0000F4B18619BE10E480068202318430C4B05
:1009F000186018460069DB041843094B18618EE142
:100A000005200007406B0423184305231B07586388
:100A10000348006901239B061843014B18617EE1DE
:100A20004000005005200007406B082318430523B1
:100A30001B075863BB4800690123DB061843B94B09
:100A400018616CE100BF00BF00BF00BF00BF2929D3
:100A500003DB2B2901DC002200E00422292901D03C
:100A60002C2910D105200007406B0F239340184319
:100A700005231B075863AB4800690123DB02984339
:100A8000A84B186122E02A2901D02D2909D105207F
:100A90000007406B03239340184305231B0758634B
:100AA00014E02B2901D02E2910D105200007406B1E
:100AB000931C03249C40204305231B07586399483B
:100AC00000690123DB029843964B186127E105205A
:100AD0000007C06B03239B03184305231B07D86340
:100AE0001DE100BF00BF302908D105200007006BC1
:100AF0000B02184305231B0718630AE005200007B3
:100B0000036B08462838012484402343052000074E
:100B10000363844800690123DB029843814B186119
:100B2000FDE000BF00BF312916D105200007006B92
:100B300003239B03184305231B07186379480069A7
:100B400001235B029843774B1861184600695B01EB
:100B50009843744B18611BE005200007036B08469F
:100B600028380124844023430520000703633629E5
:100B700007D16C4800690123DB029843694B186177
:100B800006E06848006901235B029843654B1861E1
:100B9000C5E000BF00BF322915D105200007406B1A
:100BA0000123DB02184305231B0758635D480069D6
:100BB000102318435B4B1861184600682023184324
:100BC000584B186017E038290FD105200007406BFB
:100BD0000123DB02184305231B07586351480069B2
:100BE000102318434F4B186105E04E48006820233E
:100BF00018434C4B186092E000BF00BF332906D168
:100C00004848006803231843464B18600EE03A2911
:100C100006D14448006801231843424B186005E0A0
:100C200040480068022318433E4B186077E00520D7
:100C30000007406B0C23184305231B0758633948F2
:100C4000006903235B031843364B18610520000736
:100C5000006B354B184305231B07186331480069A7
:100C6000FF231B0418432F4B186100BF3C291ED1E2
:100C700005200007406B0C23984305231B0758638E
:100C80002848006903235B039843264B186105201D
:100C90000007006B244BDB43184005231B07186338
:100CA00020480069FF231B0498431E4B18611D4810
:100CB00000690323DB0218431A4B18610520000763
:100CC000806BFF230133184305231B0798631846E5
:100CD000006B03239B02184305231B071863184668
:100CE000406BC023184305231B0758631846006B4D
:100CF000C023184305231B0718631846806B0B4B52
:100D0000184305231B0798631846406B03231B03F6
:100D1000184305231B07586301E0054810BD00BFB9
:100D20000020FBE7400000503E700000C0C0000003
:100D30000189FFFF38B50346002901DB102901DDD9
:100D40001C4838BD98011C4C00190090002A03D0A3
:100D5000012A01D0022A1DD1009800684D00032409
:100D6000AC40A043009C2060012A08D10098006894
:100D70004D000124AC402043009C206017E0022A73
:100D800015D1009800684D000224AC402043009C1F
:100D900020600CE0032A08D1009800684D0003246D
:100DA000AC402043009C206001E00248C9E70020DD
:100DB000C7E700000189FFFF0040005010B503465F
:100DC000002901DB102901DD054810BD9801054C03
:100DD0000219906801248C40204390600020F4E7C1
:100DE0000189FFFF0040005010B502460F2A01D9CB
:100DF0000B4810BD0B4800680009000113071B0FCA
:100E00001843084B186018460068102398430B01DC
:100E1000102423401843034B18600020E9E700002A
:100E20000189FFFF80410050024A1060024A1160B0
:100E3000704700001C0000202000002008490968BD
:100E40004143084A5161002191610521116100BFB0
:100E5000044909690122120411400029F8D07047A1
:100E60000400002000E000E000487047001BB700CD
:100E70007FB50025184B0FCB6C460FC41748006A8E
:100E80000003C00F002801D0154C00E0154C13489A
:100E9000006AC003C00F002801D0002519E00F4AE6
:100EA000126A9204D20E911C0C4A126AD205D20D1B
:100EB000921C62431046FFF787F906460748006A0E
:100EC0000004800F80006A4611583046FFF77CF915
:100ED0000546284604B070BD981500000002005079
:100EE00000805101001BB700F8B506460C46002EE5
:100EF00009D001200005864205D0412080038642AA
:100F000001D09048F8BDA07900280ED0A079032820
:100F10000BD0A079012808D0A079052805D0A079A8
:100F2000072802D08748401CECE7207900280BD026
:100F30002079012808D02079022805D020790328BB
:100F400002D08048801CDDE76079002808D06079F5
:100F5000012805D06079012802D07A48C01CD1E769
:100F6000E079002814D0E079012811D0E079022836
:100F70000ED0E07903280BD0E079042808D0E0797E
:100F8000052805D0E079062802D06E48001DB9E793
:100F9000002E1AD105200007C068012109048843EA
:100FA000401805210907C8600846C06801210904E6
:100FB000884305210907C860634880680121090446
:100FC000884340186049886035E00120000586426A
:100FD00017D105200007C068F1108843401805218B
:100FE0000907C8600846C068F11088430521090751
:100FF000C86055488068F11088434018524988609D
:1010000019E005200007C0680121890488434018C1
:1010100005210907C8600846C06801218904884382
:1010200005210907C8604848806801218904884370
:1010300040184549886045483518A8680421884308
:10104000001DA860A86802218843801CA860A868C9
:10105000F0218843E1790901F02211400843A8609A
:10106000E86820218843A1790422114089084901B8
:10107000202211400843E860E86810218843A179E4
:101080000222114049080901102211400843E8607A
:10109000E86808218843A179C90008221140084363
:1010A000E860E8688008800021798907890F084393
:1010B000E860E868042188436179890004221140CE
:1010C0000843E860286A000A0002217A084328627F
:1010D0001D480068C007C00F002807D01A484069A3
:1010E0000321090688431849486122E01648006A2E
:1010F000C003C00F00280AD1134840690321090624
:1011000088430121090640180F49486111E00E4843
:1011100000684007C00F002808D00B484069032131
:101120000906884340180849486102E00548801DC7
:10113000E8E600F0D9F8074632462168FFF73CF9A7
:101140000020DFE60298FFFF00020050000005408B
:1011500070B503460C460C481D18002110E000260F
:1011600006E0761C01208007864201D3074870BD47
:10117000A869C000C00F0028F3D0605C2860491C3B
:101180009142ECD30020F2E7000005400198FFFFF8
:1011900010B5012080030549086205480068002851
:1011A00002D003480068804710BD00004040005056
:1011B0002400002010B50120C0030549086205483D
:1011C0000068002802D003480068804710BD000076
:1011D00040400050280000201CB50E48006A0190D5
:1011E0000C484030006A009003218903009888432E
:1011F0000090084901980862064940310098086249
:1012000005480068002804D0034A00990198126834
:1012100090471CBD004000501C0000200EB5104837
:10122000006A02900E484030006A01900C488030FD
:10123000006A00900A490298086209494031019801
:101240000862074980310098086206480068002853
:1012500005D0044B009A019902981B6898470EBD6F
:10126000804000502000002070B504460D46E00488
:10127000C00F002802D005A000F07CF9A004C00F28
:10128000002802D002A000F075F970BD4F0A0000DE
:10129000430A000070B504460D461646A007C00F6D
:1012A000002802D00CA000F065F96007C00F0028EC
:1012B00002D00AA000F05EF92007C00F002802D07B
:1012C00007A000F057F92806C00F002802D005A09B
:1012D00000F050F970BD0000440A0000520A0000FE
:1012E0004C0A0000550A000070B500240E488069C1
:1012F0000005050F0C4840698001800F002803D1CC
:10130000FFF7B2FD04460AE0074840698001800FFC
:10131000012803D1FFF7ACFD044600E0034C691C33
:101320002046FEF751FF70BD0002005000805101C1
:10133000C206D20E01219140014A1160704700009F
:1013400000E100E010B5002819DA1A4A03071B0F64
:10135000083B9B089B00D2588307DC0EFF23A34069
:101360009A438B071B0E8407E40EA3401A43114BCC
:101370000407240F083CA408A4001A5118E00E4AE0
:1013800003231B02D21883089B00D2588307DC0E6C
:10139000FF23A3409A438B071B0E8407E40EA34050
:1013A0001A43054B032424021B198408A4001A5174
:1013B00010BD00001CED00E000E100E010B50748A2
:1013C00000684021884340300449086004480068B0
:1013D000002802D002480068804710BD000200507B
:1013E000300000207047000070B50A48C4690A4800
:1013F000C5690A480068002803D0204607490968E3
:10140000884707480068002803D02846044909682F
:10141000884770BD000005400040154034000020A2
:101420003C00002010B50548C46905480068002844
:1014300003D0204602490968884710BD00001540C6
:101440003800002030B47446641E2578641CAB421A
:1014500004D3635D5B00E31830BC18471D46F8E712
:1014600010B501220F210020FFF764FC0F2100209E
:10147000FFF70CF801220E210020FFF75BFC0E2184
:101480000020FFF703F810BD10B500220C21104614
:10149000FFF750FC00220D211046FFF74BFC002304
:1014A0001A460C211846FFF721F800231A460D2191
:1014B0001846FFF71BF800231A4601210220FFF708
:1014C00015F800231A4602210846FFF70FF80023FB
:1014D0001A4603210220FFF709F800231A460721C4
:1014E0000320FFF703F801210520FFF77DFC0C2105
:1014F0000020FEF7E1FF0D210020FEF7DDFF0121B6
:101500000220FEF7D9FF02210846FEF7D5FF03218E
:101510000220FEF7D1FF07210320FEF7CDFF02498D
:101520000248FFF781FC10BD95120000691200000F
:10153000FFF796FFFFF7A8FF00F002F800BFFEE7F5
:101540000EB52920FFF74AF8E12040020090032160
:1015500068460171002141718171C17169460020A5
:10156000FFF7C2FC002803D00E210220FFF726FC63
:101570000EBD000010B5044608E0012221460020FF
:10158000FFF7E6FD0348FFF759FC641C20780028AC
:10159000F3D110BD10270000010000000200000080
:1015A0000200000004000000C81500000000002038
:1015B0004000000004010000081600004000002068
:1015C00060040000200100000080510116000000AE
:1015D000001BB700008000000080510110270000B0
:1015E0000080510100000000000000000000000029
:1015F00000000000000000000000000000000000EB
:081600000000000000000000E2
:040000050000016591
:00000001FF
